:020000040000fa
:080000000002040000000000f2
:020000040000fa
:10040000cf032100007f22000001880000000000cf
:100410000c000700c0922700010020001100070017
:10042000000020000000e000020032000000020096
:100430000000000004740200000000000040da0028
:100440000000fe004440a900a03a20000000e000a7
:100450000300320000002000a00188004440a800f2
:100460000000060091018800800078000000eb0089
:1004700015003700e280400032a0b4009101ba00bc
:10048000e280400032a0b4009102ba00e280400055
:1004900032a0b4000002eb00472bde00f507b200eb
:1004a000602ce10004003a000059eb008301e900f0
:1004b000fdff3e00040037006128e100010032002a
:1004c0000082eb00040007001101ba000200e00006
:1004d000e8ff3a00000006003159ba008301e90044
:1004e0000c0032002159ba008301e90008003200f3
:1004f0000400e00003003a00e280400032a0b400b3
:10050000f5ff370011d9ba008301e900faff3a007c
:100510008100e800e180400032a0b4000000060045
:10052000020ab900001bb9000200b80081004200b5
:1005300081004300000006008001eb000800370046
:10054000e342780063c278008301e80084cf520060
:10055000030032000080eb000400390010000500a9
:10056000828f5100f6ff3a000000eb000000060009
:100570008001eb0002003700817178008301e80000
:10058000828f5100fcff3a0000000600881f7800af
:10059000c08180000000e000010032000000010086
:1005a000908180000000e0000100320000000100a6
:1005b000807d80000000e0000100320000000100aa
:1005c000507d80000000e0000100320000000100ca
:1005d000a00321001004e00026003a00a081800062
:1005e000b18180000004eb00d2602600930120005e
:1005f000cbff0700f2352f00e3c6230000004100c7
:10060000818049000804e800e80f5400f6ff3a0032
:10061000a0818800b181880028fb2000d2602600dc
:1006200093012000a0818000b1818000bcff070001
:10063000f2352f00e3c6230000004100818049000d
:10064000a0818800b1818800009cbe0020032100a9
:10065000800f5400f1ff3a0070818000818180009a
:10066000607d8800717d880011c0b300a003210067
:1006700001487800d260260093012000a08180000c
:10068000b1818000a6ff0700f2352f00e3c62300ea
:100690000000410081804900a0818800b18188006c
:1006a000c2fa2000120178007f0161004211dd00d2
:1006b00023fb2000030141001202be00647d88007c
:1006c000757d88000089be00607d8000717d80009e
:1006d0004008de0000f0a1004f0478000000060092
:1006e000881f780000047800c08180000000e000ce
:1006f0000100320000000100a00321000048eb00cf
:10070000908180000000e000010032000000010044
:100710006140b800a0818800b18188004f04780052
:10072000000006008001eb000200370061f0790054
:100730008301e800828f5100fcff3a0000000600b0
:1007400080007800010037000000e8001004e0009d
:10075000fdff3a0001005000000006008001780013
:100760008002eb0001003700845978000503510036
:10077000828f52000900320065c278008502e800cd
:100780000404e000f8ff3a0083007800068141008d
:100790008058eb00828f5000fdff3a0000000600f9
:1007a000800078001106b100030035009101b1000e
:1007b00001003c000050a10000000600800078000d
:1007c0001104b100030035009101b10001003c00ab
:1007d0000050a000000006008001780000017800b1
:1007e00031407800005978000004e000fcff3a0036
:1007f0000300780000000600040037000204e00057
:1008000001003a00000005000000e80010417800f7
:10081000814f5100f9ff3a00000006006022b80045
:10082000060220000000d0008180d2000482d200a5
:100830008582d2000000a0000202520083825a008a
:10084000030031000202420083824a000000a1003e
:100850000603e900f3ff3a0000000600881f780055
:10086000000478005001be004000be0004004000bb
:10087000858048000601490087814900009cbe0030
:100880000294be000400e1000588e1000690e1004a
:100890000798e10002003100680044001008e800f9
:1008a0004f04780000000600f4874700889fbe00d0
:1008b0008a9fbe008c9fbe008e1f78000205be007e
:1008c0000004be00d4b79f00e5b79f00f6b79f00b5
:1008d00087bf9f000000eb00c0b79f00b0b79f002c
:1008e000a0b79f0090b79f0080b79f000d04200025
:1008f000bfb097004fb09700000140000000e0003b
:100900000f003d004f08de0000007100c0b79f00df
:100910009e00070001003d0012002000a10007001a
:1009200001003d0012002000a6000700b1000700f2
:10093000b60007000f004000c8ff07002200370084
:100940004f08de0000067100ccb79f008f00070043
:1009500001003d00120020009200070001003d0050
:100960001200200097000700a20007000fb29700b6
:100970009fb297002fb39700bfb39700a90007005d
:100980000000520081805a0002015b0083815b00fd
:1009900080b79f0091b79f00a2b79f00b3b79f0099
:1009a0000007eb009f0007000020e10001a8e10024
:1009b00002b0e10003b8e100010031001e00200098
:1009c0000e005600c0b79f004fb297000400e00031
:1009d0000700350010002000010020006011b80061
:1009e00008047000898470000a0571008b8571000d
:1009f0008d06e900beff3a000400e00003003d0060
:100a0000820007000f00400094ff07004fa89700e6
:100a10000000e00004003a000fb497009fb4970074
:100a20002fb59700bfb59700940007004f077800d7
:100a30004f06be004f05be004f04be004f01b1007f
:100a400000000600881f780018002000881f78002a
:100a500095ff07008f87e9004f047800000006002b
:100a6000801feb0090ff07008f87e9000000060061
:100a7000889fbe008a9fbe008c1f78006e00070012
:100a800007003d0073000700e00f5b00e08f5b0094
:100a900007003d00320007000006eb0004003700ad
:100aa0003400070002003d002a0007001c0020005f
:100ab00072000700e3ff07000203be000002be0051
:100ac0000c00e00001003200220007000400be001c
:100ad0000601be004f0678004f05be004f04be0061
:100ae00000000600889fbe008a9fbe008c1f780011
:100af0005100070005003d0056000700e00f5b00b5
:100b0000e08f5b0006003d0004003700190007007d
:100b100003003d006000b8006011b800100007003d
:100b200056000700ceff07000203be000002be0011
:100b30000c00e00001003200060007000400be00c7
:100b40000601be004f0678004f05be004f04be00f0
:100b5000000006006000b8006011b8000000370017
:100b6000040250008582580006035900878359000b
:100b7000000006000006eb00e00f5200e08f5a0074
:100b8000e00f5b00e08f5b0000000600018040008a
:100b900090b79f000001eb008fb097000100e000cc
:100ba000000006000200700090b79f000180400026
:100bb00080b79f000001eb00ffa897000100e00054
:100bc000000006000200700080b79f000180400016
:100bd0006faa9700cf20de0001007000f0af9f00e9
:100be00004024200250007004f18de0000027200d8
:100bf00000000600e4af9f000804440089844c0014
:100c00000a054d008b854d00000006003fb297009d
:100c1000cfb297005fb39700efb3970000fe2f00ad
:100c2000000006003fb09700cfb097005fb197007b
:100c3000efb19700000006000205be000004be00f0
:100c4000e00f5000e08f5800e00f5900e08f59008e
:100c5000000006006000b8006011b80008045000f1
:100c6000898458000a0559008b8559001c00200012
:100c7000e00f5200e08f5a00000006000800be009e
:100c80000a01be0000000600e4fe07000400be00ea
:040c9000000006005a
:020000040000fa
:020000040001f9
:0457f800dff90000d5
:020000040000fa
:020000040001f9
:0457fc007f3d0000ed
:020000040000fa
:10000800a47a0000a47a0000f6740000fc740000d2
:10001800a47a0000a47a0000a47a0000a47a000060
:10002800a47a0000a47a0000a47a000018790000dd
:10003800a47a0000a47a0000a47a0000a47a000040
:10004800a47a0000a47a0000a47a0000a47a000030
:10005800a47a0000a47a0000a47a0000a47a000020
:10006800a47a0000a47a0000a47a0000a47a000010
:10007800a47a0000a47a0000a47a0000a47a000000
:10008800a47a0000a47a0000a47a0000a47a0000f0
:10009800a47a0000a47a0000a47a0000a47a0000e0
:1000a800a47a0000a47a0000a47a0000a47a0000d0
:1000b800a47a0000a47a0000a47a0000a47a0000c0
:1000c800a47a0000a47a0000a47a0000a47a0000b0
:1000d800a47a0000a47a0000a47a0000a47a0000a0
:1000e800a47a0000a47a0000a47a0000a47a000090
:1000f800a47a0000a47a0000a47a0000a47a000080
:10010800a47a0000a47a0000a47a0000a47a00006f
:10011800a47a0000a47a0000a47a0000a47a00005f
:10012800a47a0000a47a0000a47a0000a47a00004f
:10013800a47a0000a47a0000a47a0000a47a00003f
:10014800a47a0000a47a0000a47a0000a47a00002f
:10015800a47a0000a47a0000a47a0000a47a00001f
:10016800a47a0000a47a0000a47a0000a47a00000f
:10017800a47a0000a47a0000a47a0000a47a0000ff
:10018800a47a0000a47a0000a47a0000a47a0000ef
:10019800a47a0000a47a0000a47a0000a47a0000df
:1001a800a47a0000a47a0000a47a0000a47a0000cf
:1001b800a47a0000a47a0000a47a0000a47a0000bf
:1001c800a47a0000a47a0000a47a0000a47a0000af
:1001d800a47a0000a47a0000a47a0000a47a00009f
:1001e800a47a0000a47a0000a47a0000a47a00008f
:0801f800a47a0000a47a0000c3
:020000040000fa
:10020800a47a0000a47a0000f6740000fc740000d0
:10021800a47a0000a47a0000a47a0000a47a00005e
:10022800a47a0000a47a0000a47a000018790000db
:10023800a47a0000a47a0000a47a0000a47a00003e
:10024800a47a0000a47a0000a47a0000a47a00002e
:10025800a47a0000a47a0000a47a0000a47a00001e
:10026800a47a0000a47a0000a47a0000a47a00000e
:10027800a47a0000a47a0000a47a0000a47a0000fe
:10028800a47a0000a47a0000a47a0000a47a0000ee
:10029800a47a0000a47a0000a47a0000a47a0000de
:1002a800a47a0000a47a0000a47a0000a47a0000ce
:1002b800a47a0000a47a0000a47a0000a47a0000be
:1002c800a47a0000a47a0000a47a0000a47a0000ae
:1002d800a47a0000a47a0000a47a0000a47a00009e
:1002e800a47a0000a47a0000a47a0000a47a00008e
:1002f800a47a0000a47a0000a47a0000a47a00007e
:10030800a47a0000a47a0000a47a0000a47a00006d
:10031800a47a0000a47a0000a47a0000a47a00005d
:10032800a47a0000a47a0000a47a0000a47a00004d
:10033800a47a0000a47a0000a47a0000a47a00003d
:10034800a47a0000a47a0000a47a0000a47a00002d
:10035800a47a0000a47a0000a47a0000a47a00001d
:10036800a47a0000a47a0000a47a0000a47a00000d
:10037800a47a0000a47a0000a47a0000a47a0000fd
:10038800a47a0000a47a0000a47a0000a47a0000ed
:10039800a47a0000a47a0000a47a0000a47a0000dd
:1003a800a47a0000a47a0000a47a0000a47a0000cd
:1003b800a47a0000a47a0000a47a0000a47a0000bd
:1003c800a47a0000a47a0000a47a0000a47a0000ad
:1003d800a47a0000a47a0000a47a0000a47a00009d
:1003e800a47a0000a47a0000a47a0000a47a00008d
:0803f800a47a0000a47a0000c1
:020000040000fa
:100c94000d0a00000d0a00000074000065780000d1
:100ca400742f0000706c0000616900006e00000089
:100cb4000000000000000000000000000000000030
:100cc4000074000065780000742f00006874000050
:100cd4006d6c000000000000000000000000000037
:100ce40000000000000000000074000065780000af
:100cf400742f0000687400006d6c00000000000098
:100d040000000000000000000000000000000000df
:100d14000074000065780000742f0000786d0000f6
:100d24006c00000000000000000000000000000053
:100d34000000000000000000006900006d61000078
:100d4400676500002f67000069660000000000006e
:100d5400000000000000000000000000000000008f
:100d6400006900006d610000676500002f700000dd
:100d74006e6700000000000000000000000000009a
:100d84000000000000000000006900006d61000028
:100d9400676500002f6a00007065000067000000ae
:100da400000000000000000000000000000000003f
:100db40000610000707000006c6900006361000055
:100dc400746900006f6e00002f6a000061760000f5
:100dd400612d0000766d0000006100007564000064
:100de400696f00002f7800002d7700006176000005
:100df400650000000000000000000000000000008a
:100e040000000000000000000000000000000000de
:100e140000000000000000000000000000000000ce
:100e240000000000000000000048000054540000ce
:100e3400502f0000312e000031200000323000001d
:100e4400302000004f4b00000d0a0000436f0000eb
:100e54006e740000656e0000742d0000747900004b
:100e6400706500003a20000000480000545400005f
:100e7400502f0000312e00003120000032300000dd
:100e8400302000004f4b00000d0a000044610000b8
:100e9400746500003a20000057650000642c0000cf
:100ea4002030000035200000417000007220000056
:100eb400323000003036000020300000323a0000aa
:100ec400353300003a30000035200000474d000063
:100ed400540d00000a45000078700000697200009b
:100ee400657300003a20000057650000642c000080
:100ef4002030000035200000417000007220000006
:100f0400323000003036000020300000323a000059
:100f1400353200003a30000035200000474d000013
:100f2400540d00000a43000061630000686500007e
:100f34002d6300006f6e0000747200006f6c00007f
:100f44003a200000707200006976000061740000ad
:100f5400650d00000a4300006f6e00007465000018
:100f64006e7400002d74000079700000653a000072
:100f740020000000494e000044450000582e0000a7
:100f8400485400004d000000545800005400000074
:100f9400485400004d000000434700004900000091
:100fa400584d00004c000000474900004600000076
:100fb400504e0000470000004a5000004700000067
:100fc400434c00004100000057410000560000005f
:100fd4000000000000000000504f000053540000c7
:100fe40000470000455400000074000065730000d1
:100ff40074000000770000000d0a00000072000079
:1010040000200000000000000d0a00000d0a00008e
:10101400476f00006f6400006279000065210000e2
:101024000d0a0000003d00003d3d00003d4d000064
:10103400414900004e2000004d4500004e5500007f
:101044003d3d00003d3d00000d0a00005b2a00000c
:101054005d200000526500006672000065730000a8
:10106400680d00000a5b0000315d000020540000a0
:101074006f670000676c0000652000004c450000ad
:10108400440d00000a5b0000322d0000355d0000b5
:10109400205400006f670000676c000065200000aa
:1010a4004155000058200000302d0000330d000091
:1010b4000a5b0000525d00002052000065730000ce
:1010c4006574000020440000657600006963000038
:1010d400650d00000a5b0000515d00002051000016
:1010e40075690000740d00000a0000000d0a00007c
:1010f400000d00000a4900004f2000004368000072
:10110400616e00006e6500006c7300003a20000000
:10111400000d00000a4c000045440000733a000032
:10112400200000000d0a00004c6f00006361000005
:101134006c200000495000003a200000000d00001f
:101144000a4c00006f67000067650000642000001f
:10115400696e000020730000756300006365000081
:1011640073730000667500006c6c0000790d00005c
:101174000a0000000d0a00004163000063650000de
:101184007373000020640000656e00006965000050
:10119400640d00000a0d00000a0000005061000008
:1011a40073730000776f0000726400003a2000003f
:1011b400fffd00002d0000001b5b0000324a000010
:1011c4001b5b0000333100006d1b00005b3100002d
:1011d4006d410000657400006865000072540000f1
:1011e4006170000020540000656c00006e65000012
:1011f40074200000536500007276000065720000e0
:10120400203100002e3100001b5b0000306d000017
:101214000d0a00004c6f0000676900006e3a000080
:10122400200000000d0a0000546f00006f20000031
:101234006d750000636800002064000061740000a4
:10124400612e00000d0a000000410000646d0000e2
:10125400696e0000005400006f6f0000206d0000f4
:101264007563000068200000646100007461000080
:101274002e0d00000a0000001b5b0000316d000011
:10128400001b00005b3500003b31000066000000dd
:1012940000950000000000000000000001f90000bb
:1012a400000000000000000009af00000000000082
:1012b400010000000a1b0000000000000100000003
:1012c4000cc3000000000000000000000daf00008f
:1012d400020000000000000010ff000000000000f9
:1012e4000000000011ff00000000000001000000e9
:1012f40012ff0000000000000100000018ff0000c1
:10130400000000000100000019ff000000000000c0
:101314000100000020ff00000000000000000000a9
:1013240021ff0000000000000000000026df000094
:1013340001000000000000003773000000000000fe
:10134400000000003a250000030000000000000037
:101354003b25000000000000000000000d0a000012
:1013640044480000435000002f5000006f770000f5
:101374006572000020650000766500006e74000050
:10138400206f000063630000757200007265000046
:101394006400000009000000c8000000c80000004c
:1013a40008000000c8000000c8000000020000009f
:1013b400c8000000c80000002e2e0000002000001d
:1013c4002020000020200000202000002020000019
:1013d400202000000000000000040000a300000022
:0413e4000000000005
:020000040000fa
:1013e800881f78000004780040589000e14f5000b2
:1013f80017003900e24f500003003600e34f500059
:1014080013003a0008003700e10f5100e08f59003f
:1014180005003e0058009000e800900002004000df
:10142800838048000a00370062005100e0805900bc
:10143800385990000281fb000300200036fc0700a9
:1014480078019000880990000000410081804900df
:101458004f04780000000600614078000080fb001f
:1014680000000600889fbe00800478001001780004
:101478006000b800892f0700e14f500002003200d9
:1014880080c0b3007a00370019047800f8b89100da
:1014980050a52a00808f500048003a0061032000c0
:1014a80008007800ecff070061c4b300814f5000ca
:1014b8001d003a007103200008007800e6ff0700cd
:1014c80011c4b300814f500017003a008103200077
:1014d80008007800e0ff070041c5b300814f5000c5
:1014e80011003a009103200008007800daff070095
:1014f80011c3b300814f50000b003a006102200075
:1015080008007800d4ff070091c2b300814f500053
:1015180005003a006000b80090049800a104980003
:1015280020c0b30022003700210520000800780001
:10153800c9ff070061c4b300814f50001f003a0083
:101548003105200008007800c3ff070011c4b3006c
:10155800814f500019003a0041052000080078002a
:10156800bdff070041c5b300814f500013003a008a
:101578005105200008007800b7ff070031c3b30009
:10158800814f50000d003a00210420000800780027
:10159800b1ff070091c2b300814f500007003a0025
:1015a8006000b80090049800a104980030c0b3000f
:1015b800c05c98000000eb002f003700e8f89300ab
:1015c80050c5b30080cf500004003a00f8f89300eb
:1015d800a0cab30080cf50000200320040c0b30060
:1015e80023003700e8c093008180fb0078c0930097
:1015f8004800dd000101700088c893008180fb006d
:1016080018c893004800dd0081017000920498001a
:10161800a304980028c09300ee4f500013003e002a
:101628000000fb00120020008010dd0000052400ef
:101638000080600007003a00008021000080600000
:1016480006003a000118a30008003200c25c9800a6
:101658000800370020c0b3000100370030c0b300d5
:10166800c05c98000040eb000200370050c0b30097
:10167800deecb7000080fb004f04be00000006004f
:1016880081004000114090004800dd009180fb007f
:101698000100700000000600889fbe008a9fbe00ff
:1016a80080047800010478008180e800f4ff0700d6
:1016b80001002000c005dd000a0020008800780035
:1016c80009007800eeff0700010020000000750007
:1016d800818075004f05be004f04be000000060063
:1016e800889fbe008a9fbe008c9fbe008e1f780018
:1016f80000047800a0009000100090001801780005
:10170800e62e0700e14f50000200320080c0b3000f
:101718008500370098047800f9b8910050a52a0090
:10172800808f50007f003a00e10020000900780017
:10173800d3ff070000077800d100200009007800d7
:1017480045ff0700305c980018009000a800900042
:101758000e004000e08048003004980041049800e2
:1017680001012000180078003bff0700205c98006a
:101778006101200018007800c1ff0700400c9800a4
:101788000000e00004003a00410220001800780040
:10179800c1ff0700400c9800285890000080fb000b
:1017a800480990000280b90038019000c8019000f3
:1017b80000004100e080490050049800610498004e
:1017c8001101200018007800adff0700000678001e
:1017d800100c980098047800310120000900780066
:1017e800a7ff07006105b8000000e00004003a0008
:1017f8000102200009007800a7ff07000005be00cd
:10180800b1002000090078009dff070080047800df
:101818000000e000020032000008a30004003200cb
:1018280030c0b300deecb7003000200041003700c4
:101838004560dd00090040000000e90011000900d2
:101848000980d8006106b800285890000080fb0085
:10185800480990000280b9000000470000004600d7
:10186800e0804e000000550081805d0038599000ee
:101878000281fb0003002000e6fb0700200c980013
:10188800310c980042ff2000820f5000e08f580072
:1018980002003e0010c0b30006003700ec0f400005
:1018a800e08f580002003e0020c0b300010037005e
:1018b80030c0b300405c980048589000e34f500097
:1018c8000a003a00c10220001800780072ff0700e1
:1018d800006788001167880058009000e8009000b1
:1018e8000c0040008d80480008003700e02cef0015
:1018f800e22cef00180890004400de005801900028
:10190800e801900000004100e08049007004980060
:10191800010c98008040eb0000202000808f5400cc
:101928000300320030c0b300deecb700804078001e
:101938000180fb004f0778004f06be004f05be0030
:101948004f04be0000000600881f780000047800dd
:101958000040eb00505c980000a02000000c7800cc
:10196800fa2e0700e14f50000400320060c0b300b7
:10197800deecb700804078000c00370008007800e3
:10198800b8fe0700804078000004e00007003a0035
:101998000800780052ff0700804078000004e0004b
:1019a80002003a0010c0b300505c98000180fb00b0
:1019b8004f0478000000060010c0b300efecb70039
:1019c8004b6fef00b42d070080c12000deff070039
:1019d8008000eb000004e0002d003a0081c12000e7
:1019e800407a8000010878008000eb00407a80008f
:1019f80051009800407a8000610098006011b8009a
:101a0800407a80007200980003089800407a8000ad
:101a18001208980023089800c1c5b300407a8000d6
:101a2800415898001200200003c2b300fc00410096
:101a3800407a8000837078000201e800eb0f5100c3
:101a4800faff3a000001eb00407a8000421098004b
:101a580001012000407a800061109800407a8000df
:101a680004678000156780007410980005189800b6
:101a7800407a800004678000156780001418980079
:101a88002518980002007800deecb700110020004d
:101a9800010078000000060000017800200890008e
:101aa80001002000c000dd00000020005209900065
:101ab8000300200002007000838070000000060010
:101ac800889fbe00987a80009804780038019000ba
:101ad800c80190000900780041fe07000001be001f
:101ae8005800900000004100e08049008041eb0070
:101af80019017800332e0700910020000004e0004f
:101b0800020032004d6fef008000eb00010078000a
:101b18004f04be0000000600e6874700889fbe000d
:101b28008a9fbe008c9fbe008e1f78000006be00f4
:101b3800f2b79f0083bf9f00e00f5000e08f58006e
:101b480097003200e10f5100e08f590094003600f1
:101b580061005100e0805900800f5600818f5e00bf
:101b68008f003e004d4fe20003003200d4ff070013
:101b78000004e0008a003a0008a0200002202000ab
:101b88008000eb000800780077fa07000807780063
:101b980012ec2300030020000c00be001dfb070010
:101ba8000004be004e48dd00c244de008904700017
:101bb8004e44dd0012ec2300030020000c00be00a0
:101bc8002ffc07000005be00f203200003002000e0
:101bd80010fb07004609dd00ca00de008100710025
:101be8004600dd000004740081847400f2032000c4
:101bf800030020000a00be0021fc0700610040002d
:101c0800e080480000047400818474004048de00cd
:101c180001002000bfebb700c849dd004840de00e6
:101c280000807100c848de00c0ebb70008007800eb
:101c3800c1ebb7007fb097008fb897000c01500038
:101c48008d81580002007800caebb7004810de000a
:101c5800cbebb70003007800ccebb7004818de00e8
:101c6800cdebb70081032100810f5100e08f5900af
:101c780003003e0010c0b300c2ebb70007003700f6
:101c8800f0d52f00f1032000800f5100818f5900fb
:101c980043003e0060c0b30020c79b006cc79b0098
:101ca8004860de0070c79b000dcf9b004868de00cf
:101cb80010cf9b007fb197008fb997000c054100aa
:101cc8008d85490061055500e0855d0012ec230013
:101cd800030020000a00be00cefa0700ce09dd008e
:101ce800c204de00898471004e04dd0012ec23007a
:101cf800030020000a00be00e1fb07000005be004b
:101d0800f203200003002000c2fa07004609dd00a4
:101d1800ca00de00810071004600dd000004740086
:101d280081847400f2032000030020000a00be0032
:101d3800d3fb070061004000e08048000004740005
:101d4800818474004048de0001002000c3ebb70026
:101d5800c849dd004840de0000807100c848de0048
:101d6800c4ebb70008007800c5ebb7000040eb00f3
:101d7800607f9b0050c5b30060ff9b00a0cab30002
:101d880070ff9b0013c0b30002a020006000b800e1
:101d98008c2d07008000eb00e14f5000010032005d
:101da8008080eb00010078004f0778004f06be00e6
:101db8004f05be004f04be006f00b10000000600d2
:101dc8000f02b000889fbe008a9fbe008c9fbe0095
:101dd8008e1f7800004578000206be0001077800d3
:101de800de6cef0000a02000a0af9f00aa2c070027
:101df800d62d0700e14f50000200320060c0b3004a
:101e08000600370002a020006000b800232d07005c
:101e18000004e00004003a00b0c1b300deecb700f3
:101e28000080eb00190237002fac9700f8b891003a
:101e380050a52a00808f50003b003a006103200023
:101e48000800780084fd070061c4b300814f50008a
:101e580026003a0071032000080078007efd070084
:101e680011c4b300814f500020003a0081032000c4
:101e78000800780078fd070041c5b300814f500085
:101e88001a003a00910320000800780072fd07004c
:101e980011c3b300814f500014003a0061022000c2
:101ea800080078006cfd070091c2b300814f500014
:101eb8000e003a000a04e00003003200e14f55002a
:101ec80019003a00710137006000b800b0af9f00f8
:101ed800c1af9f0040fd2f000f00400000fe07002b
:101ee8000004e00063013200cbff37000ba02000a4
:101ef80061bc2000914078008180fb00c7cbbf0007
:101f08004800dd000101700081bc2000914078008c
:101f18008180fb00c9cbbf004800dd008101700053
:101f2800b2af9f00c3af9f000a04e0005101320026
:101f3800e14f550055013a00abc893008180fb0082
:101f48003bc893004800dd0001047000cbc8930033
:101f58008180fb005bc893004800dd0081047000ad
:101f680080032100800f5400e08f5c0015003e00c4
:101f78008af79f00aac59b008a41780002a020002a
:101f88006000b8000f2d07000004e00037013200a0
:101f980020c0b30072022100820f5400e08f5c0061
:101fa80001003e0010c0b300f0ef9f0002202000a7
:101fb8008000eb0000a020006bf9070020c3b300ed
:101fc8002a003700f0d52f00f1032000800f5400bd
:101fd800818f5c0023003e0020c0b30080f79f0083
:101fe80060c0b300a0c59b0013c0b30002a02000ce
:101ff8006000b800f32c07000004e0001b01320069
:102008000800be008021b1000180b10012c0b300f9
:10201800d4fe2f00050020000300370002414100d4
:102028008100d1000080d300840f5000858f5800b4
:10203800faff3e00f2ef9f0000c8b300804f510046
:102048000200360040c0b30074ff370002202000b1
:102058008000eb0000a0200043f9070060c3b30034
:102068000200370070c1b3006cff37003aeab700ce
:102078007fed97000a81fb0002004100cf80de005f
:1020880008004000898048000002be001402b10028
:102098000580b1000ff09700e14f500003003a00af
:1020a800501520000090b900010037004810dd00ed
:1020b8000080e8006101b900040041008580490002
:1020c80061005000e0805800d2f90700b2ceb3009a
:1020d8000001fd0000eab7000001fd00c2c3b30023
:1020e8000001fd0001eab7000001fd0002c9b300cc
:1020f8000001fd0002eab7000001fd00d2c4b300f0
:102108000001fd0003eab7000001fd006a4151002b
:102118000001fd0004eab7000001fd00654141002f
:102128000001fd0005eab7000001fd00684141001b
:102138000001fd0006eab7000001fd0002c2b3007d
:102148000001fd0007eab7000001fd0062c4b3000a
:102158000001fd0008eab7000001fd0065415100db
:102168000001fd0009eab7000001fd0073414100cc
:102178000001fd000aeab7000001fd008043eb0002
:102188008003fd000beab7008003fd0026c0b30002
:102198000003fd000ceab7000003fd000005fd0088
:1021a8000deab7000005fd0082c0b3000001fd0084
:1021b8000eeab7000001fd008003fd000feab7003a
:1021c8008003fd003faa9700cfaa9700680142004c
:1021d800e0814a00d2af9f00e3af9f000003fd00fb
:1021e80010eab7000003fd00e6ef9f008003fd0042
:1021f80011eab7008003fd000003fd0012eab700f2
:102208000003fd0002202000b2b79f008003fd00fc
:1022180013eab70014eab7008003fd0082cfb300c9
:102228000001fd0015eab7000001fd0016eab7003d
:10223800c809de00480bdd004801de00020173001a
:102248000001fd0017eab7000001fd000003780057
:10225800e0b79f00f0c3b30018eab70007007800a2
:1022680019eab7001aeaef00070078001beab7007e
:10227800040078001ceab7004829dd004820de0089
:1022880000007100c828de001deab7004028de0003
:10229800010020001eeab700482ade00040078008a
:1022a8001feab7000800780020eab7004849dd00b7
:1022b8004840de0000007100c848de0021eab7008f
:1022c8004048de000100200022eab7004848de004e
:1022d8000100200023eab7008003fd0024eab700cc
:1022e80025eab7008003fd0090c2b30026eab700d4
:1022f8000c00780027eab7000c00be00e00f56007b
:10230800e08f5e0002003d00f00fb0000180b000d9
:102318004809dd004800de0000007100c888de00c2
:1023280028eab7000c00be00e00f5600e08f5e0000
:1023380004003d00f0ff2f00010020000c004000c9
:102348008d8048004088de00cf80de0029eab70093
:102358000c01be00e00f5600e08f5e0004003d0057
:10236800f0ff2f00f10f20000c0140008d81480084
:102378004898de00cf80de002aeab7000e00e000b1
:10238800140032000000eb00a2a220000100370078
:102398000171780080417800ee4078000104e00087
:1023a800090032000000e800ec0f5000f8ff3a0086
:1023b8000e0037000381fb00b1a2200000c2b30069
:1023c80000f178008341e800eacf5100f9ff3600b8
:1023d80006003700b0a220000041eb0061a32000f6
:1023e80002587800810f5000fdff3a0060c4b30026
:1023f80036eab7006540500037eab700734040003e
:1024080038eab70010c3b30039eab700714050008a
:102418003beab7003ceab7003deab70050c5b30055
:10242800feebb700a0cab300ffebb7006fe8970058
:102438000080fb000680b9005fa99700efa997000c
:1024480000004100e0804900f0af9f0081b79f0085
:102458008041eb0002a020003fa89700cfa897007a
:10246800d82b07000004e0000a003a0090c0b3002f
:102478006afe370040fd2f000f00400098fc07005f
:102488000004e0000300320063fe3700f0c1b3002f
:1024980062fe3700022020008000eb0000a0200030
:1024a80031f8070080cfb30000eab70080c0eb0026
:1024b8008000fd0001eab70002eab7008000fd00d5
:1024c8000ff09700e24f500002003a000100780038
:1024d80003eab7006fe897000080fb008004e9007a
:1024e800090478000c0037006fb0970000c0b900ed
:1024f8005fa99700efa9970000004100e08049001c
:102508008041eb0002a02000ae2b07000004e00091
:1025180043fe32000804e900e10f4400f2ff3a00ec
:10252800002aef00022aef002fd897008044e80025
:10253800130037006fe897000080fb000005e900f2
:102548000a0478000b0037000980fb006fb1970080
:1025580002c1b90002004000010020008041eb00e8
:1025680002a02000972b07000004e0002cfe320098
:102578000804e900e10f4400f3ff3a008944e80049
:102588000980fb00010020006fb197005faa970047
:10259800efaa970002014200e0814a00820f500032
:1025a800838f5800e3ff39003fb097004500dd00f6
:1025b800f01fb0004900de006105b80018c0b30084
:1025c8000a0037007fa897008fb0970002004000ec
:1025d800838048008041eb0002a02000792b07008f
:1025e8000004e0000efe32000844e8000881fb0009
:1025f800030020008a0f51008b8f5900f1ff39002a
:102608000e00e000190032000000eb00f29f2000ed
:10261800010037000171780080417800ee407800b1
:102628000104e000090032000000e800ec0f50004f
:10263800f8ff3a00070037000381fb0001a02000e3
:1026480000c2b30000f178008341e800eacf5100ee
:10265800f9ff360080c0b3000beab70010c1b30021
:1026680011eab70013eab70017eab7008041eb0098
:1026780002a020007fa897008fb09700512b070079
:102688000004e000e6fd32000000eb004f07780090
:102698004f06be004f05be004f04be000f02b1003a
:1026a80000000600889fbe0090047800101a900071
:1026b800a01a9000110078004404de0049589000e8
:1026c800e14f500010003900e24f5000030036007f
:1026d800e34f50000c003a00050037000067800007
:1026e80011678000800f5200818f5a000600320067
:1026f8000880fb00395990000281fb001100090095
:102708000280d800014478000401be000900780066
:1027180033fb07000881fb00030020000000410094
:10272800818049008041eb0019017800252b0700c2
:102738000080fb000000e9004f00de000004a2005a
:102748000080fb004f04be0000000600ea87470037
:10275800889fbe008a9fbe008c9fbe008e1f780097
:1027680080bf9f000203be000406be0040599000cf
:102778000240e900e24f500003003600f0ff2f004e
:10278800f1ff2000cd003700e14f51000c00390067
:10279800e24f510003003600e34f510008003a00b1
:1027a80003003700f2ff2f0003002000020037006b
:1027b800f2ff2f00f3ff2000d2b79f00e3b79f007e
:1027c8004b6fef000004eb000104e00009003a0041
:1027d8000e0037008041eb0002802000b07a8000b4
:1027e800c17a8000f72a07000804e8000004e00026
:1027f800b40032008fb9970023589000884f5000da
:10280800f4ff3e00546fef00ab0037008fb897001d
:1028180041589000e14f500007003200e34f50004c
:102828000e003a00423add00ce32de008502720028
:102838004232dd000b003700320020000300200088
:102848000600be0034f7070061416000e2ef9f0018
:102858008102d1000082d300020037000602430043
:1028680087824b00472bdd004921de0002017300ff
:10287800c929de000fbb970036009000c600900003
:102888000205400083854800f21f20000300200055
:10289800040061006104b800b07a8000c17a800049
:1028a8008a0f50008b8f58001b003200544fe200f3
:1028b8000f00320003077800080037008041eb0062
:1028c80002802000b07a8000c17a8000bd2a07000b
:1028d8000e07e8000004e0007a0032008fb8970085
:1028e800215890008e4f5000f4ff3e00546fef00c7
:1028f800028020000a00be00682a07000004e000e9
:1029080003003a0056afef00582fef006d00370074
:10291800ba7a8800cb7a88008fb99700435890001c
:10292800e34f500018003a00880278000080200029
:102938000c74780000f02f000c00600001002000eb
:10294800480bdd004800de0000007300c808de0008
:102958001480200000747a00208020008d72780096
:1029680000f0200000816600030020004818dd0008
:102978004811de0002017000c819de003080200016
:10298800027478004a003700e24f50000c003a0009
:10299800008020000c74780000f02f000c0060000c
:1029a800010020004809dd004800de000000710039
:1029b800c808de0012802000007479003c0037004f
:1029c800e14f50003a003a00008020000001440026
:1029d80012407800efe997000304e0000400320099
:1029e800c460dd006f40600000c070000100370067
:1029f8000c407800004978000800e800f01fb20099
:102a08006104b800e00f5400e08f5c0014003a0045
:102a180011c0b3000802be000801be000fb897003d
:102a28004aff0700e00f5000e08f580025003a00e9
:102a380061054500e0854d00028020000a00be00c7
:102a4800162a07000004e00003003a0056afef0022
:102a5800582fef001b003700ba7a8800cb7a88001d
:102a68000080200080014400134378006fe897003d
:102a78000004e000050032004c69dd004460de001f
:102a880000007100c468de00080037004869dd00f6
:102a98004860de0000007100c868de006f4060001a
:102aa80002cfb30002416300024070008049780001
:102ab80010c0b30054efb7006000b800d0b79f0053
:102ac800e1b79f005fb09700efb097004f0778001d
:102ad8004f06be004f05be004f04be00af00b10058
:102ae80000000600f0874700889fbe008a9fbe004e
:102af8008c9fbe008e1f7800000778000200be0081
:102b08004b6fef004e5e9000e14f56000d00320013
:102b1800e34f560019003a00421add00ce12de00db
:102b2800850272004212dd00f0ff2f00f1ff200045
:102b3800c0b79f00d1b79f0080ff2f00f1ff200092
:102b480016003700320020000300200072f607004c
:102b580061416000c2ef9f008102d1000082d30072
:102b6800f0ff2f0001002000c0b79f00d1b79f00e1
:102b780080ff200001002000080037000202410009
:102b880083824900f0ff2f0001002000c0b79f009a
:102b9800d1b79f0080ff2f0001002000a0b79f0041
:102ba800b1b79f004729dd004920de000000710011
:102bb800c928de003e019000ce01900000054100ca
:102bc8008185490004007800f01fb2006104b80054
:102bd800b07a8000c17a8000f0b79f0081bf9f0063
:102be8008a0f50008b8f580044003a00e34f56007c
:102bf80059003200e24f56005d003200e14f5600a6
:102c080082003a0000802000684078000086fb00bf
:102c18000d002000cfe897000104e0000400320016
:102c28004c69dd004466de000c067100c46ede00ef
:102c38000800e800f01fb2006104b800e00f54007b
:102c4800e08f5c0018003a00544fe20008003200a0
:102c580011c0b3000802be000801be000e007800d3
:102c6800bafe0700e00f5000e08f580071003a00ec
:102c78007fb097008fb8970061054000e085480055
:102c8800028020000a00be00842907000004e0003a
:102c980003003a0056afef00582fef0065003700e9
:102ca800ba7a8800cb7a88000080200068407800d3
:102cb8000080fb00010020004fe997000204e000bb
:102cc80005003200440add00cc00de0081007200fd
:102cd8004400dd00060037006f006000010020009e
:102ce800c808dd000080fd00804078000040eb004f
:102cf8000c0440008d84480044003700544fe20023
:102d08000800320011c0b3006022b8000401be0000
:102d18000e0078008dfe0700e00f5000e08f58008d
:102d280044003a00028020000a00be005b29070028
:102d38000004e00003003a0056afef00582fef0000
:102d48003c003700ba7a8800cb7a88004e58900049
:102d5800e34f500004003a000080200000004400c7
:102d68001004be0029003700e24f500004003a006a
:102d780000802000680078006104b8002300370054
:102d8800e14f500021003a000080200068407800a0
:102d98000081fb0003002000cfe897000104e00059
:102da800040032004c1add004411de0002017200fa
:102db800c419de000800e800f01fb20001802000fe
:102dc80060c078000080fb00010020004fea9700f7
:102dd8000404e00005003200440add00cc00de00f7
:102de800810072004400dd00060037006f006000bb
:102df80001002000c808dd000080fd008040780048
:102e08000040eb0002044000838448002fb0970084
:102e1800bfb09700800f5400818f5c000300390019
:102e2800c0b79f00d1b79f0002003700c8b79f0006
:102e3800d9b79f004fb09700dfb097004f077800d1
:102e48004f06be004f05be004f04be000f01b10083
:102e580000000600ec874700889fbe008a9fbe00de
:102e68008c9fbe008e1f78008006780081bf9f006f
:102e7800024778009005780070129000801a900040
:102e8800101c9000a01c900091017800441ede00e8
:102e98004b589000e14f50001e003900e24f50009f
:102ea8000b003600e34f50001a003a000c80fb007c
:102eb8003b5990000281fb00110009000280d800f4
:102ec8000146780080ff2f00f1ff20000f00370037
:102ed80080ff2f0001002000c0b79f00d1b79f00de
:102ee800e00f5200e08f5a000a0032000c80fb000d
:102ef8003b5990000281fb00110009000280d800b4
:102f08000146780080ff2f0001002000c0b79f0015
:102f1800d1b79f000e04e00002003a006f80610004
:102f280068003a000c04e00002003a00ef8f5100fc
:102f380002003e000e04e0001c003200e00f5200c8
:102f4800e08f5a0002003a000404be001700370060
:102f58000e04e000080032003b5990000281fb009b
:102f68004411dd00110009008281d80000017800b9
:102f7800024578000b0037001ac0b3000801be00f4
:102f88000b007800d7fe07000004be004fb1970081
:102f9800dfb19700820f5000838f58004500310041
:102fa8000a45e9000a04e000f4ff3a004fb0970030
:102fb800dfb09700800f5400818f5c003d00310026
:102fc800981e9800a91e98000801be000b00780002
:102fd80003f90700e0b79f00f1b79f000067800082
:102fe80011678000800f5400818f5c000f003a0049
:102ff8000c80fb00010020006fb19700ffb1970023
:1030080002004000838048007b0190008b099000fb
:10301800820f5000838f5800040039004b589000ed
:103028008000eb00e34f500028003a004d4fe200cb
:1030380004003200a2fa07008000eb000004e00060
:1030480022003a000004eb00987a88000800780013
:103058004befb7000c80fb00010020006fb1970018
:10306800ffb1970002004000838048001b017800f0
:103078008a280700e14f50000200320088007800db
:10308800090037000e04e000060032008fb99700ef
:10309800930178006f8061004500dd009b004000cf
:1030a800010037009b0078004eafef0050afef00f3
:1030b8000600370010c0b3004cefb7008000eb00eb
:1030c800020037004500dd009b0040000100780049
:1030d8004f0778004f06be004f05be004f04be00e4
:1030e800cf00b10000000600ea874700889fbe00b5
:1030f8008a9fbe008c9fbe008e1f78000007780054
:10310800f2b79f0083bf9f00900678004d5890004b
:10311800e14f5000050032008aff2f000b0020000d
:10312800e34f500003003a000a0037008aff2000ee
:103138000b002000f0ff2f0001002000d0b79f00f7
:10314800e1b79f007fb497008fbc97000046eb0063
:10315800050037008aff2f00fbff2000f0ff2f003b
:10316800f1ff2000f5ff37003e019000ce019000ee
:103178000d0078005bfe07000001be005fb09700fd
:10318800efb09700800f5100818f590002003a007c
:103198008cc0b3000a0037002d089000bd089000cd
:1031a800800f5100818f590001003900acc0b30075
:1031b8008a0f51008b8f590001003900ccc3b3002e
:1031c800320798004307980061045400e0845c00cb
:1031d800020032000c04e000e3ff32000c80fb0028
:1031e8004f0778004f06be004f05be004f04be00d3
:1031f800af00b100000006000800fa00889fbe007a
:103208008a9fbe008c9fbe000005be008206780023
:1032180042589000e24f500012003200e34f500035
:1032280009003200e14f500016003a00f0ff2f006d
:1032380001002000e0b79f00f1b79f0082ff200047
:10324800030020000d003700f0ff2f00f1ff2000e1
:10325800e0b79f00f1b79f0082ff2f00f3ff200027
:1032680006003700f0ff2f0001002000e0b79f00a4
:10327800f1b79f0082ff2f000300200082bf9f004c
:1032880093bf9f00e10f5500e08f5d0021003600dd
:103298000a01be000d00780012fe07000004be00ff
:1032a8006fb09700ffb09700800f5400818f5c00cb
:1032b8001a003200e10f5400e08f5c001500360060
:1032c8002c0020000fb997009fb99700820f540077
:1032d800838f5c00010031000006eb008040eb00aa
:1032e8006022b8000a01be000d00780017fd070033
:1032f8006fb19700ffb19700820f5000838f58007d
:10330800060032000805be000c00e00004003a0088
:10331800dfff37002c002000010037001c002000d0
:1033280011c0b3006022b8000401be000d0078008f
:1033380006fd07000c0078000010a2000000ea005b
:103348004f00de00610010004f06be004f05be00b2
:103358004f04be000080fa0000000600889fbe00ef
:1033680080047800010478008018900070109000a4
:10337800901c9800a11c980012c0b3008800780027
:1033880009007800b3fe07000000e00011003200d9
:10339800904078000104e0000e003200fbcf4000ae
:1033a8000c00320007003700180ce8000041eb0061
:1033b8008800780009007800a6fe07000000e000f9
:1033c80004003200b0489000efcf5000f6ff320002
:1033d800010037000000eb004f04be0000000600ab
:1033e800881f7800716220009140780027c6bf00ce
:1033f800624160002706a8002726a8002031800027
:103408002531800028318000273180000108a30081
:10341800010032002706a8000204e0000100320083
:103428002726a8006f016000000fb2004400de00ec
:103438006a00b90000014100740141004910dd0033
:10344800a100200005c8a30001003a008000eb009d
:1034580006f0200086816200c819de0083814000e2
:10346800c519dd0083017000040f2000048062008c
:103478004400de006a00b9006f816200000141006b
:10348800828171005367880023678800436788003a
:10349800040064004400de006a00b9006f016400a3
:1034a800000141004b11dd004c38de006a00b90014
:1034b800068363004833de00000343004533dd0024
:1034c80006017100048263004422de006a22b9000a
:1034d8006f806300840040000108a30003003200ed
:1034e80040c6b300eeecb70001003700ee6cef0009
:1034f8000100d10000007100606788003067880013
:103508004f04780000000600889fbe008a9fbe0016
:103518008c1f780080047800810578000205780007
:10352800034678008018900070109000901c980056
:10353800a11c980012c0b3008a0078000900780026
:1035480044fe070000047800b00120000800e000f5
:103558003a003200b20020008b00780008007800a2
:103568007cf4070000c1b300f24f5600010032009e
:1035780000c2b300304c98000040eb00404c98006b
:103588000000eb00200c9800500c98006000b80078
:10359800600c9800710c980091ff0700e1ce2000a4
:1035a80091407800514c9800606780007004980042
:1035b80051678000010c9800f24f56000600320057
:1035c80040678000100c980031678000310c98002b
:1035d80020678000030037000000eb00100c980003
:1035e800300c9800400c980068089000f80890008b
:1035f800900c9800a10c9800f8009000c10c98005d
:1036080008089000d00c9800384890000080fb0013
:10361800e01498009a007800c11498008a00780095
:10362800090078001ffc070091c0b300e14f50006b
:1036380001003a008040eb000180fb004f06780053
:103648004f05be004f04be00000006000800fa0047
:10365800889fbe008a9fbe008c1f780010067800e5
:1036680030059000c00590004c589000e24f500083
:103678000e003200e34f500005003200e14f5000c9
:1036880012003a0070ff20000100200009003700f6
:1036980070ff2f00f1ff200090bf9f00a1bf9f0087
:1036a800f2ff2f00f3ff20000600370070ff2f0005
:1036b8000100200090bf9f00a1bf9f00f2ff2f00d4
:1036c80003002000f2b79f0083bf9f00e10f550061
:1036d800e08f5d0002003e002a0020000b00200061
:1036e8000a01be000c007800fefc07000a04be00b8
:1036f8001c0037000801be000c007800f9fc070028
:103708007fb197008fb99700820f5000838f5800c0
:1037180018003200e00f5000e08f58001600320009
:1037280061044400e0844c001fb99700afb99700ca
:10373800820f5000838f5800050032002c0890003b
:10374800bc089000800f5400818f5c000200390093
:1037580028002000090020008a0f54008b8f5c008d
:1037680004003200e00f5400e08f5c00e1ff3a00f3
:10377800010037006044b8000800be004f0678001a
:103788004f05be004f04be000080fa00000006008e
:10379800889fbe008a1f78008c9fbe0000057800b5
:1037a8000ff707000006be004d4fe200040032008c
:1037b800c3f80700910020000004e0001e003a0052
:1037c8008000eb00917a88004b4fe20005003a0038
:1037d8001a0078000220200063f3070010c0b3002d
:1037e8004befb7000c02be000041eb000b003700a6
:1037f80061044200e0844a008041eb001a0178002d
:103808000400be00ef26070092c0b300e14f50004d
:1038180001003a000041eb000802be008c40520053
:103828003a58900080cf5000020031000204e000b6
:10383800efff32008280fb00010078004f06be00d7
:103848004f0578004f04be0000000600889fbe00a8
:1038580081047800100478007cff07000001be0096
:10386800808cbe0050012000e00f5100e08f59000d
:103878002200320048589000e14f500004003a00fe
:103888008040eb0084ff2000050020000500370081
:10389800e24f500009003a008040eb0084ff2f00ff
:1038a8000500200008007800a8fb0700e10f400091
:1038b800e08f58000d003a000a0037008040eb0006
:1038c80084ff2f00f5ff2000080078009ffb070009
:1038d800f2ff2f00f3ff2000820f5000838f580063
:1038e80002003a0090002000040037001901be00d1
:1038f80008007800a6ff07000080fb004f04be0008
:10390800000006000600fa00881f7800000478000e
:10391800e880570040109000801878000800780070
:10392800caff0700800078000000e00010003a009d
:10393800e88057000800780088fe0700dfb8970085
:1039480051089800efb89700f2ff200082806000cd
:1039580021089800e88057000800780051fb07000c
:1039680091002000e14f500001003a008000eb0078
:10397800010078004f0478000080fa00000006007b
:10398800889fbe008a9fbe008c1f78008005780043
:1039980001467800100578002cff07000004be00df
:1039a80050012000e00f5400e08f5c00220032003c
:1039b8004a589000e14f500004003a008040eb0064
:1039c80084ff20000500200009003700e24f500066
:1039d80004003a008040eb0084ff2f00050020001f
:1039e800030037008040eb0084ff2f00f5ff200024
:1039f8000801be000a00780054fb07003b01900054
:103a0800cb0190008040eb000802be000a0078005d
:103a18004efb0700b8059800c90598000000eb00a8
:103a2800e14f560004003a000801be000a00780081
:103a380057ff07000080fb004f0678004f05be00c7
:103a48004f04be0000000600889fbe008a1f780051
:103a58000004be008018900070109000101c9800a0
:103a6800211c980012c0b3000800be00f9fc070032
:103a78000000e0001b003a00230037000104e000ca
:103a880003003a000000e00021003a00020037007d
:103a98000000e00013003a0018199000a8199000df
:103aa8000067800011678000800f5100818f5900e6
:103ab80004003a001800780040589000e34f500086
:103ac80015003a00320498004304980011c0b3006e
:103ad80008007800aaff0700f54f50000c003a00d4
:103ae8000d003700190578000041eb000800be0002
:103af800d8fc070090407800990ce800fbcf400004
:103b0800deff3a00dfff37000000eb000700370058
:103b18008040eb000100370021c0b3008a0c780018
:103b2800100020000104e000f7ff3a004f0578007c
:103b38004f04be00000006000c00fa00889fbe007b
:103b48008a1f780080047800010478000245780014
:103b5800de6cef00fc004000728057006781570060
:103b680031587800820f5000fdff3a00000ceb003e
:103b78008800780009007800b3ff070041012000a1
:103b88000004e0000b0032008a4178000801780048
:103b9800f2805700090078005bfe07008080fb0078
:103ba8000004e00003003a000900780055ff070010
:103bb8008000780001007800deecb7000100780092
:103bc8004f0578004f04be000080fa000000060090
:103bd8000200fa00889fbe0080047800de6cef00c7
:103be80040109000d0bf9f00390890008104200049
:103bf8000008a3002e0032004d4fe20005003200fd
:103c0800aff707000004e0000200320090c0b300e4
:103c18000c00370011c0b3006022b8000401be00d8
:103c280019007800c9fa0700e680570009007800f3
:103c3800cafd0700000478000000e00004003a0014
:103c4800b0c1b300deecb7008080eb002100370084
:103c5800e3fd070031678000310c98002067800081
:103c6800400c98000000000019089000a908900076
:103c7800600c9800710c9800c9689000314c98004d
:103c8800e68057000900780086fa07008000eb00fc
:103c98000004e00003003a0090c0b300deecb70077
:103ca8008080eb00390890000000a100b00c98005b
:103cb80000cf2000808f540002003a0010c0b300eb
:103cc800efecb70080042000808f500001003a001c
:103cd8008000eb00010078004f04be000080fa006d
:103ce80000000600889fbe008a9fbe008c9fbe0011
:103cf8008e1f780000057800010778009100780091
:103d08006f80600008003a000100e0000600320001
:103d18007a1090008a189000101d9800211d9800b4
:103d280012c0b300010037000041eb008e0078009c
:103d38000a00780047fc07008004780010407800eb
:103d48000900e000370032000004e00035003200ce
:103d580018c0b300fb4f40003300320089057800db
:103d68007c0445000046eb003b80fb008af207001c
:103d7800005c78000c46e800e84f5600faff3a006d
:103d8800e88644008005eb000b4446000884fb00ed
:103d98007c0444000a0444003d80fb007ef20700d6
:103da800004c78008b05e800e38f5500f6ff3a00d9
:103db8001e0778004e15980050ceb30019406800d1
:103dc8000080fb000000e9004f04de006908900055
:103dd800f9089000100d9800210d9800090078004e
:103de8002df7070010059800210598003948900024
:103df8000080fb00601598000048a3000400320012
:103e0800f9009000410d9800890c900003003700dc
:103e180039089000400d9800c90c9000590d980081
:103e28000100370028c0b3000880fb004f07780066
:103e38004f06be004f05be004f04be00000006003e
:103e4800889fbe008a9fbe008c9fbe000004780039
:103e5800010578008246780090047800595890004f
:103e68007c0020000004e0004e0032007810900032
:103e780088189000101c9800211c98001a007800df
:103e88000000e000020032006f006000070032000e
:103e980012c0b3008a00780008007800edfb070024
:103ea800bc0120000000e000010032000006eb0029
:103eb8008a007800080078008aff07000004e00004
:103ec80002003200bc002000360037006000b80055
:103ed80070049800010c980018009000a800900049
:103ee80030049800410498000000eb00500498004a
:103ef8006004980018019000a8019000090078005b
:103f080037f507000005be004d4fe20005003200fe
:103f1800ebf607000004e000020032009c002000dd
:103f280020003700987a8800707a8000817a8000b3
:103f38008a0f50008b8f5800090032004b6fef003a
:103f4800190178000a00be00d42407000004e0002c
:103f580001003a008c0020007a7a88008b7a880069
:103f6800380890000020a100300c980070c7b300fa
:103f780080cf5600030032007640500080cf5600b4
:103f880004003a00380890000000a0000010a100ca
:103f980003003700380890000000a1000010a000be
:103fa800300c98000c0078004f06be004f05be008c
:103fb8004f04be0000000600e8874700889fbe0047
:103fc8008a9fbe008c9fbe008e1f78000006780076
:103fd8000107780082f79f0093f79f004010900038
:103fe800e0b79f007c1090008c189000101e98007d
:103ff800211e98006e1090000080ea00f0b79f0024
:104008006fb097000000e000020032006f0060000f
:104018007a00320012c0b300f48057000c00780018
:104028008cfb07000000e00074003a0071003700c4
:10403800f48057000c0078002aff0700e24f500078
:10404800700032000004e0005d003a00ec109000bf
:10405800f103b2001ff197000204e00003003200f0
:10406800e14f51005d003a0014003700e88f50001e
:104078005a0032007c054600fc044700bbc0b30070
:104088001a80fb00cbf10700000478001980fb00c0
:10409800c8f10700800f54004d003a008b45e90035
:1040a8000a05e8008904e8000b04e0004a00320031
:1040b800f3ff3700b8002000210037007fb19700d8
:1040c8000280600045003a00ef8f50004300320044
:1040d800ce589000a0c2b30080cf50001700320025
:1040e800fc0546007c0547008dc0b3009b40780066
:1040f8009a447800a0c2b30080cf54000f00320069
:104108007540400080cf5400070032000180fb005a
:10411800a8f10700000478000980fb00a5f107005a
:10412800800f5400e3ff3a008d46e9008b05e80054
:104138000a05e8000d04e000ecff3a000004eb007b
:10414800ce609000a0c2b30080cf500023003200a0
:104158000800e00021003a004b0220008c85450051
:104168004a0220000e0545003dc0b3009b40780080
:104178009a447800a0c2b30080cf540016003200e1
:104188007540400080cf5400070032000180fb00da
:1041980088f10700000478000980fb0085f107001a
:1041a800800f54000a003a008d46e9008b05e800ac
:1041b8000a05e8000d04e00007003200ebff3700b5
:1041c8000ff097000004e0000300320003003700fe
:1041d800b8002000010037000004eb00efb09700a2
:1041e8008100e800e1b79f000800e0000500320008
:1041f8008fff3700b801200002003700b800200008
:104208008bff3700080078004f0778004f06be0084
:104218004f05be004f04be008f00b100000006002d
:10422800889fbe008a9fbe008c9fbe000004be000f
:104238000246780090067800801890007010900070
:10424800101c9800211c980012c0b3000800be0082
:1042580000fb0700800078000000e00004003a003e
:1042680010c0b300deecb700b10120002400370015
:10427800104078000004e0001e003200fb4f4000b0
:104288001c00320050ceb30080487800010078004e
:1042980001f607000005be000800be0001f907008e
:1042a800110020000004e0001300320000678000c5
:1042b80011678000800f5500818f5d000a00320071
:1042c8000c04e000080032000d0178000a00be006e
:1042d800c9fb07000080fb000000e900cf00de00fa
:1042e80002003200040037008000eb00de6cef00b3
:1042f80003003700b100200010c0b300deecb700a7
:10430800010078004f06be004f05be004f04be00f6
:10431800000006000001eb006303200061707900d3
:104328000201e800830f5100fcff3a00000006007c
:10433800e4874700889fbe008a9fbe008c9fbe000e
:104348008e1f7800000778001000780080bf9f005b
:10435800e18f500004003200e28f50000700320065
:104368000206be00090037007e0090008e0890000b
:104378000206400083864800040037001e089000ab
:10438800ae08900002065000838658004d4fe200a8
:1043980005003200caf507000004e0000200320000
:1043a80090c0b3000b0037001e009000ae009000d4
:1043b80030079800410798000c01be001e089000c5
:1043c800ae089000800f5600818f5e000400360012
:1043d800f0c1b300deecb7000080eb006e003700e0
:1043e8003e0890000020a100300f98007c0798003c
:1043f8000d0f98000c00be00e00f5600e08f5e0025
:1044080002003d00f01fb0000180b000c98dde0041
:10441800470add004905de000a0572004958dd003b
:10442800c750de00810070004950dd0000005100d7
:1044380081805900600798000fb89700305c9000a1
:104448000884fb00090020000801be000a00be0025
:10445800f0f007000006be000001be000800be0024
:104468002df007000005550081855d005a0798006a
:10447800e00f5600e08f5e00310032000c01be00f4
:104488000e00780018fb0700804078000004e00068
:104498002b003200c0c3b30080cf500026003a0082
:1044a8003e0890000008a300110032001e00900092
:1044b800ae0090003007980041079800e10f5600c1
:1044c800e08f5e000400320061015600e0815e006a
:1044d8000e00780004fb07008040eb000e00780017
:1044e80027fd07000004e000150032001200370025
:1044f8001e009000ae009000300798004107980019
:1045080061015600e0815e000e007800f6fa0700af
:104518000004e00008003a0000202000600798002e
:104528008fb89700315890000080fb000000e90028
:104538005007980002003700f0c0b300a5ff37000d
:104548003e019000ce0190000fb89700a4f3070039
:104558005e01900002064000e08648000000eb0083
:10456800907a88004befb7000fba970014017800d3
:104578000c00be00492307000004e00002003a00d6
:10458800b0c1b30093ff37007c7a88008d7a880029
:10459800de6cef000000eb004f0778004f06be000e
:1045a8004f05be004f04be004f00b10000000600da
:1045b800de6cef008008900070009000000006009c
:1045c800881f7800000478004d4fe2000100320097
:1045d8003bf507006000b80070049800010c9800d3
:1045e8000000eb0060049800500498001801900047
:1045f800a80190003204980043049800907a88003b
:104608004f04780000000600deccbf000080fb00ed
:10461800000006000200fa00889fbe00000478002f
:1046280081447800de6cef0009007800800db2004c
:1046380010003a0048109000d0bf9f0078109000fa
:1046480088189000101c9800211c9800e6805700dc
:104658000800780041fb070080007800b0c1b30073
:104668000100e00014003200314890000038a30037
:1046780002003200f0c1b3000f003700681090004c
:104688000048a30004003200094078000044a0005c
:10469800b048980001003700b9489800e6805700f4
:1046a80008007800fff707008000eb000004e00036
:1046b80003003a0090c0b300deecb7008080eb0046
:1046c800010078004f04be000080fa0000000600d8
:1046d800f6874700889fbe008a9fbe008c9fbe0059
:1046e8008e1f780081bf9f00030578000289b900fa
:1046f8008200780003002000e2b79f00f3b79f0014
:10470800d0b79f003a0890006101600004003a00a9
:10471800d0c1b300deecb70082007800bb003700e0
:104728000100e000b9003200692307000004e0003e
:104738000200320080c1b300170037004b6fef0052
:104748001a077800ea0590007a0090008a0890001d
:10475800b0b79f00c1b79f003a019000ca0190000e
:104768000e0078001ef307005a0190000204400072
:10477800e0844800907a80008a0f50000a003200d6
:104788004d4fe20007003200cdf407000004e000be
:104798000400320090c0b300deecb7008000eb00ec
:1047a8009a0037009a7a88000001eb00707a80003e
:1047b800817a8000880f5000898f580011003200dc
:1047c8004d4fe20003003200bdf407000004e00092
:1047d800f0ff3a004b6fef001e0178000800be00a2
:1047e800ae2207000001eb000004e00003003a00dd
:1047f800b0c1b300deecb70082002000787a8800f0
:10480800897a88001a089000aa08900090b79f003b
:10481800a1b79f000200e0000b0032003fb69700ee
:10482800cfb697008004eb006d0037008005eb00e1
:104838006b003700b0c1b300deecb7004eafef003d
:1048480050afef00d5ff37003fb69700cfb69700bf
:104858006011b800f2af9f0083b79f00ffac9700cc
:104868001fb09700afb09700800f5600818f5e0091
:1048780003003a003a0890000020a000300d98008c
:1048880000202000808f550034003a004d4fe20090
:10489800030032008af407000004e000bdff3a007c
:1048a800da0090008100e800510598003e58900019
:1048b8000080fb001bc0b300808f500015003a0039
:1048c8000004eb00580598003a0890000028a3005f
:1048d80006003200884078000a00780028fc0700ab
:1048e8000080fb0088457800060037001200200091
:1048f800030020000a007800fbf907000080fb0095
:104908001bc0b300f50f5000a3ff32000000e00009
:10491800c6ff3a003a019000ca0190000e007800e4
:10492800aff207005a01900002044000e0844800fa
:104938009a7a88000b04e000050032001e01780016
:104948000800be00552207000004e000b9ff32004d
:10495800787a8800897a88008005eb001e00780044
:104968005fb297007fa997008fb1970064417900e3
:10497800827578008b05e80061064600e0864e00e7
:10498800bfb19700830456003a0890000028a3009e
:10499800060032001fb09700afb0970061004000da
:1049a800e080480090b79f00a1b79f0010c0b300f7
:1049b8004defb7007fa997008fb1970061014100c3
:1049c800e0814900f2af9f0083b79f006fb0970066
:1049d800ffb09700800f5100818f59009fff3a0068
:1049e8006b0598007c0598000d0d98001fb1970085
:1049f800afb19700120d9800230d98008fb997005a
:104a0800110009008384d8008000fd0001007800af
:104a18004f0778004f06be004f05be004f04be008a
:104a28006f01b10000000600de6cef000002eb0031
:104a38007001900080099000a00890001008900074
:104a4800800f5100818f590001003a0014002000a6
:104a58000400780000000600f0874700889fbe0029
:104a68008a9fbe008c9fbe008e1f780081bf9f006a
:104a7800030478000289b90003002000e2b79f0010
:104a8800f3b79f00d0b79f00de6cef0018077800df
:104a9800e80490007800900088089000b0b79f0064
:104aa800c1b79f0038089000e200600003003a0098
:104ab800e0c1b300deecb700730037004d4fe200f1
:104ac80005003200fef307000004e0000200320097
:104ad80090c0b30015003700907a8000880f50000e
:104ae8002000320000202000808f54001d0032007a
:104af800987a880038019000c80190000e0078006c
:104b080037f207005801900002054000e085480090
:104b18004b6fef001e0178000a00be00df2107007e
:104b28000004e0000d003a0080c0b300deecb700de
:104b38008000eb0054003700d0c3b30001003700f9
:104b4800f0c0b300deecb7004500370080c0b3000a
:104b5800deecb7008004eb00410037007a7a880069
:104b68008b7a88006066b800370037001808900014
:104b7800a80890003fb19700cfb19700800f51006f
:104b8800818f5900ecff320000202000808f5400f4
:104b980020003a00d80090008100e80051049800f5
:104ba8003e5890000080fb00808f500008003a00bb
:104bb8008004eb0059049800120020000300200034
:104bc8000800780048f907000004e000dcff3a001c
:104bd80038019000c80190000e00780000f207002c
:104be8005801900002054000e0854800987a880046
:104bf8004b6fef001e0178000a00be00a7210700d6
:104c08000004e000d1ff32007a7a88008b7a8800ad
:104c18008004eb001e00780069407800dfb197003f
:104c280080717e008904e8003fb09700cfb09700fc
:104c380061004000e0804800b0b79f00c1b79f0006
:104c480061064600e0864e00acb79f006fb1970042
:104c5800ffb19700820f5600838f5e00c3ff3a00b2
:104c6800690498003fb09700cfb09700700498008f
:104c7800010c9800afb197000fb997001100090017
:104c88008281d8008000fd00010078004f0778007d
:104c98004f06be004f05be004f04be000f01b10015
:104ca80000000600889fbe00000478008144780058
:104cb800a1ee0700000278000043eb000001eb00c2
:104cc800e5c2b300450037008801410093407800f1
:104cd80000c2b30080cf500003003c00e5cf500075
:104ce8002c0032004100370020c2b30080cf5000b2
:104cf8003e0032006940400080cf50003b00320047
:104d08000040e80080cf5000380032006340400087
:104d180080cf5000350032006b40400080cf5000fb
:104d2800320032000040e80080cf50002f003200ef
:104d38000040e80080cf50002c0032000040e8001e
:104d480080cf5000290032000040e80080cf50009a
:104d5800260032007d40400080cf50002300320002
:104d68000040e80080cf5000200032000040e800fa
:104d780080cf50001d0032007f40400080cf50009f
:104d88001a00320085cf500002003a00e14f53006c
:104d9800160032000904e00006003a00a0c2b30081
:104da80080cf5000110032007540400080cf500085
:104db8000e00320085cf500001003a0016c0b30043
:104dc800f0c9b30000c04000f94f500002003e0097
:104dd80000ceb30080c940000201e800840f5100f2
:104de800b9ff350010002000010037000000eb007b
:104df8004f04be00000006001000fa00889fbe00a5
:104e08008a9fbe00000478008105780082447800fb
:104e18000000eb0001c2b300817578000000e800d3
:104e2800eb0f5000fcff3a0098407800e0c2b30056
:104e380080cf5000380032000104e0003600320014
:104e4800080078003cee0700ec0f500032003e00ee
:104e580088007800788057005dee07008940780068
:104e6800788057008fff07000004e0002a00320016
:104e7800e1022000788057005dee0700800478008a
:104e88000000e00005003200805ceb0009007800bb
:104e980029ee0700e30f50001f003e0078805700fe
:104ea80025ee07000005eb00e80f5000040036006f
:104eb800190037007800540060c07f0000f47d00be
:104ec8000a84fb000a05e800788057001aee0700fc
:104ed800800f5400f7ff39000900e000100032008d
:104ee8000005eb001904e00004003a000c0037004c
:104ef8000880450068c47c00084898000a84fb00c4
:104f08000a05e800090078000bee0700800f54003e
:104f1800f7ff3900020037000000eb0001003700fe
:104f2800100020004f05be004f04be000080fa00ac
:104f380000000600881f780000047800de6cef008f
:104f4800632107000004e0000200320080c1b300c2
:104f5800320037000041eb00e1cb20000800780068
:104f6800a5ff07000004e00002003a0020c1b300da
:104f78002a00370080c12000106588006000b80052
:104f88002065880031658800406588005165880083
:104f98000004eb0058668800000220007066880054
:104fa800407a800070119000801990008266880015
:104fb8009366880010199000a0199000a2668800d6
:104fc800b366880021ca2000c0c62000d1fc0700b3
:104fd8008841780012c0b300c1c6200020ca200052
:104fe800f5fb07000000e00002003200b0c0b3008b
:104ff8000a00370030c1b300ce8cab0007003a007e
:1050080012c0b300a1cc200020ca200084fc0700f5
:105018000000e0000300320010c0b300deecb7006f
:105028000080eb004f047800000006000200fa0040
:10503800889fbe008a9fbe0081057800ef4ce20081
:10504800090032000041eb000001fd00efecb70061
:105058000001fd00c1d0200067ff07000004e00048
:1050680009003a000200370000c2b300030037000d
:1050780010c0b300efecb70020c1b300deecb700fe
:105088000000eb00b30037009b44780080c120008b
:10509800806788006000b80090678800a167880072
:1050a800b0678800c16788000004eb00c868880002
:1050b80000022000e0688800407a800070119000ab
:1050c80080199000f2688800036988001019900020
:1050d800a0199000126988002369880001cf200078
:1050e800c0c620008bfc07008841780012c0b300be
:1050f800c1c6200000cf2000affb07000000e00081
:1051080056003a0070c5b30080cf54001200320038
:1051180007003e007640500080cf54002d0032003a
:105128007140400080cf54006b003a003c003700cb
:1051380020c7b30080cf54003900320065404000da
:1051480080cf5400040032007640500080cf5400d5
:1051580061003a001f003700c3688000b3bf9f009a
:1051680012c0b300ea80570000cf20002cfc0700d3
:10517800000478000000e0006b003a00004178006d
:10518800ea80570000cf20006bfa0700000478007f
:105198000000e00064003a0072c7b300ea805700dc
:1051a80000cf200026fb0700000478001c8dab0010
:1051b80049003a000000e0005b003a0021002000ae
:1051c8006011b80000cf200059fc070000047800e7
:1051d800500037001068800021688000e00f500000
:1051e800e08f580003003200c0688000b0bf9f0005
:1051f80032003700c2688000b2bf9f0012c0b300ff
:10520800ea80570000cf200005fc07000004780062
:105218000000e00044003a00004178002100370017
:10522800c3688000b3bf9f0022c7b300ea8057005d
:1052380000cf200002fb0700000478009b4090008c
:10524800b0c2b30080cf500037003a001c8dab00cd
:1052580035003a00060da80033003700c1c620000b
:1052680000cf20002bfc070070c7b30080cf54008c
:105278000a00320070c5b30080cf54000700320026
:105288006a40400080cf540004003200b80020007b
:1052980010c4b30080cf540023003a000001eb0093
:1052a800b2bf9f00ea80570000cf200022fa070013
:1052b800000478000000e0001b003a0072c7b30049
:1052c800ea80570000cf2000ddfa070000047800cc
:1052d8001c8dab0004003200f0c1b300deecb70057
:1052e800f80f2000100037000000e0000e003a0020
:1052f800210020006011b80000cf20000cfc07003e
:10530800000478000000e00002003200a0c1b300f1
:10531800deecb7009b409000b0c2b30080cf5000d5
:1053280001003a00062da800692007000004e000eb
:1053380001003200060da9000800e0000300320059
:1053480010c0b300efecb7004dff3700de6cef0084
:1053580000cf20004f05be004f04be000080fa00b9
:10536800000006000e00fa00889fbe008a1f780021
:10537800800178000104780010002000e0b79f0049
:10538800de6cef0090c1b3000100e0006000320065
:10539800fc8040000041eb000300780096fe070007
:1053a8000004e00002003a0020c1b30058003700b2
:1053b8007c004400f2845700e7805700b05c780016
:1053c800818f5400fdff3a00481590000000eb0063
:1053d800e0b79f007810900088189000101c980083
:1053e800211c980012c0b300f48057000800780010
:1053f80098f607000000e000340032000041eb009e
:10540800f28057009041780091cf5100010032009e
:1054180012c0b3000000e8008100e800898f500046
:10542800f8ff3a000204e000360032004c6fef004b
:105438000041eb00f48057000800780085f607006b
:105448000000e00005003a00c0f4200011c0b300dd
:1054580090cf1000130032001c0037001004e00049
:10546800100032000041eb00f280570090417800b4
:1054780091cf51000100320012c0b3000000e800d3
:105488008100e800898f5000f8ff3a000204e0002c
:105498001c0032006fb097000000e800e0b79f00e2
:1054a800e3ff3700eab79f00781090008818900053
:1054b800101c9800211c9800f48057000800780000
:1054c800a6f707000000e00002003a00b0c1b300f0
:1054d8000f0037007c014400b1c0b3003258780097
:1054e8008140e900fdff3a00f48057000800780089
:1054f8006cf407008000eb000004e00006003a00ae
:105508000200370010c1b3000100370090c0b3009b
:10551800deecb7008080eb00010078004f057800d2
:105528004f04be000080fa00000006000c00fa00dc
:10553800881f780000047800dafd07008000eb007f
:105548000001eb00e4c2b3000004e00007003a00e9
:105558003d003700ee82570080f278008341e80072
:105568000201e800e80f510007003200824178008c
:105578008200780068c07800844f50000200320032
:105588000004e000f3ff3a000341780001c2b300d1
:10559800040037000280fb006e00500001f07f001d
:1055a8000241e800e74f5100faff36000380fb0094
:1055b800e0407c00e0c2b30080cf500011003a0008
:1055c8008340e800050037000280fb006e005000b1
:1055d80003f07f000241e8008140e8000180fb0001
:1055e800e0417c000304e000f7ff3a0005003700c3
:1055f8008280fb0000c2b300ee80500080f07f0084
:105608000241e800ea4f5100f9ff36000040eb0084
:10561800d0ff9f0000c2b300aff0970080cf5000ca
:1056280002003a00f0c5b300a0f79f000000eb00ad
:10563800ee815700637478000000e800ec0f50001a
:10564800fbff3a0011002000010078004f047800a9
:105658000080fa00000006003800fa00889fbe00ab
:105668008a1f78000104780020fc2f000f004000fa
:105678001100200001187800417a800025fb0700fe
:10568800de6cef00984478000904e0006600320000
:105698008800780003003700c0c0b30063003700fb
:1056a8008a007800e0c2b30080cf540006003200c0
:1056b800c0c5b30080cf54005f00320001057800f8
:1056c800a3c020008b0037000105e8001a417800cc
:1056d800e0c2b300804f510045003a000185e80060
:1056e8009a4478001fb99700afb997000067800007
:1056f80011678000800f5100818f59004a003200e5
:10570800b2bf9f00c3bf9f001200200092a79f0056
:1057180021fc2f008f8040000180e800cdf50700b4
:105728000000e00029003200dbf0070090bf9f0076
:10573800a1bf9f00b0bf9f00c1bf9f00e00f5000f6
:10574800e08f58000f003a00c0c5b30080e79f0003
:105758007f80570002c2b300f580570002587800d6
:10576800810f5000fdff3a0000678000116780003c
:10577800b0bf9f00c1bf9f0090bf9f00a1bf9f0007
:1057880009003700e0c2b30080e79f0090e79f0060
:105798007e80570002c2b300f58057000258780097
:1057a800810f5000fdff3a0020fc2f000f00400041
:1057b8000018eb0012c0b30021fc2f008f804000be
:1057c800a4f507000000e00003003a00b0c1b300f0
:1057d80016003700da447800c0c5b30080cf540003
:1057e800fcff32000904e000adff3a007f003700fb
:1057f8000204e0007d003200c0c5b300804f5100b4
:1058080009003a00da44780080cf5400fdff3200e6
:105818000904e000a2ff3a00407a800043fc2f0010
:105828008f80410074003700f0c1b300deecb70090
:105838000080eb007a0037000105e8009a40780004
:1058480081447800c0c5b30080cf5000f6ff320015
:105858000104e00016003a00407a800002678000e8
:10586800136780007210980003189800407a80002f
:1058780002678000136780001218980023189800a8
:10588800c1c5b300407a800041589800120020003a
:1058980003c2b300fc004100407a800083707800a6
:1058a8000201e800eb0f51005c003200f9ff3700fd
:1058b800006780001167800090bf9f00a1bf9f0014
:1058c800b0bf9f00c1bf9f00c0c5b30080e79f0065
:1058d8007f80570002c2b300f58057000258780055
:1058e800810f50006eff3200fcff370089597800a5
:1058f800da447800014155000904e000060032004e
:10590800c0c5b30080cf54000300320060c120003e
:10591800808f5100f5ff3a00ec4f510007003a0024
:1059280001003700da4478000904e000030032007f
:10593800c0c5b30080cf5400faff3a000281fb00d3
:10594800a0c020008040eb0001717800f7fe07003e
:105958000004e000b6ff3200a0c0200003fe2f00c4
:105968000f81410051c1200030597800810f50004b
:10597800fdff3a0040fc2f000f044000880078002b
:10598800c0c6200063fa07008041eb0012c0b300d4
:1059980088007800c0c6200087f907000000e000f2
:1059a8003dff3a00c0648000f00f50009eff3a00af
:1059b80080c8200001fe2f000f81400031c920005f
:1059c80030597800810f5000fdff3a007063800065
:1059d8008163800090bf9f00a1bf9f00b0bf9f0060
:1059e800c1bf9f000904e00008003a00407a800027
:1059f80042fc2f008f00410046fa070007003700dd
:105a0800da4478000904e00083ff3200c0c5b3001f
:105a180080cf5400faff320021ff37000000eb006e
:105a28004f0578004f04be000080fa000000060011
:105a3800800078000001eb000040eb0006ff370013
:105a48000200fa00889fbe008a9fbe00800478008a
:105a580012002000b2bf9f00ea805700fdf4070043
:105a68000000e000650032000bf007000005be00f2
:105a7800d0668800e1668800e00f5000e08f58008b
:105a880011003a00c0c5b300c05c9800fc80440017
